{
  "_format": "hh-sol-artifact-1",
  "contractName": "SimpleNFT",
  "sourceName": "contracts/SimpleNFT.sol",
  "abi": [
    {
      "inputs": [],
      "stateMutability": "nonpayable",
      "type": "constructor"
    },
    {
      "inputs": [
        {
          "internalType": "address",
          "name": "sender",
          "type": "address"
        },
        {
          "internalType": "uint256",
          "name": "tokenId",
          "type": "uint256"
        },
        {
          "internalType": "address",
          "name": "owner",
          "type": "address"
        }
      ],
      "name": "ERC721IncorrectOwner",
      "type": "error"
    },
    {
      "inputs": [
        {
          "internalType": "address",
          "name": "operator",
          "type": "address"
        },
        {
          "internalType": "uint256",
          "name": "tokenId",
          "type": "uint256"
        }
      ],
      "name": "ERC721InsufficientApproval",
      "type": "error"
    },
    {
      "inputs": [
        {
          "internalType": "address",
          "name": "approver",
          "type": "address"
        }
      ],
      "name": "ERC721InvalidApprover",
      "type": "error"
    },
    {
      "inputs": [
        {
          "internalType": "address",
          "name": "operator",
          "type": "address"
        }
      ],
      "name": "ERC721InvalidOperator",
      "type": "error"
    },
    {
      "inputs": [
        {
          "internalType": "address",
          "name": "owner",
          "type": "address"
        }
      ],
      "name": "ERC721InvalidOwner",
      "type": "error"
    },
    {
      "inputs": [
        {
          "internalType": "address",
          "name": "receiver",
          "type": "address"
        }
      ],
      "name": "ERC721InvalidReceiver",
      "type": "error"
    },
    {
      "inputs": [
        {
          "internalType": "address",
          "name": "sender",
          "type": "address"
        }
      ],
      "name": "ERC721InvalidSender",
      "type": "error"
    },
    {
      "inputs": [
        {
          "internalType": "uint256",
          "name": "tokenId",
          "type": "uint256"
        }
      ],
      "name": "ERC721NonexistentToken",
      "type": "error"
    },
    {
      "inputs": [
        {
          "internalType": "address",
          "name": "owner",
          "type": "address"
        }
      ],
      "name": "OwnableInvalidOwner",
      "type": "error"
    },
    {
      "inputs": [
        {
          "internalType": "address",
          "name": "account",
          "type": "address"
        }
      ],
      "name": "OwnableUnauthorizedAccount",
      "type": "error"
    },
    {
      "anonymous": false,
      "inputs": [
        {
          "indexed": true,
          "internalType": "address",
          "name": "owner",
          "type": "address"
        },
        {
          "indexed": true,
          "internalType": "address",
          "name": "approved",
          "type": "address"
        },
        {
          "indexed": true,
          "internalType": "uint256",
          "name": "tokenId",
          "type": "uint256"
        }
      ],
      "name": "Approval",
      "type": "event"
    },
    {
      "anonymous": false,
      "inputs": [
        {
          "indexed": true,
          "internalType": "address",
          "name": "owner",
          "type": "address"
        },
        {
          "indexed": true,
          "internalType": "address",
          "name": "operator",
          "type": "address"
        },
        {
          "indexed": false,
          "internalType": "bool",
          "name": "approved",
          "type": "bool"
        }
      ],
      "name": "ApprovalForAll",
      "type": "event"
    },
    {
      "anonymous": false,
      "inputs": [
        {
          "indexed": false,
          "internalType": "uint256",
          "name": "_fromTokenId",
          "type": "uint256"
        },
        {
          "indexed": false,
          "internalType": "uint256",
          "name": "_toTokenId",
          "type": "uint256"
        }
      ],
      "name": "BatchMetadataUpdate",
      "type": "event"
    },
    {
      "anonymous": false,
      "inputs": [
        {
          "indexed": false,
          "internalType": "uint256",
          "name": "_tokenId",
          "type": "uint256"
        }
      ],
      "name": "MetadataUpdate",
      "type": "event"
    },
    {
      "anonymous": false,
      "inputs": [
        {
          "indexed": true,
          "internalType": "uint256",
          "name": "tokenId",
          "type": "uint256"
        },
        {
          "indexed": true,
          "internalType": "address",
          "name": "minter",
          "type": "address"
        },
        {
          "indexed": false,
          "internalType": "string",
          "name": "tokenURI",
          "type": "string"
        },
        {
          "indexed": false,
          "internalType": "uint256",
          "name": "timestamp",
          "type": "uint256"
        }
      ],
      "name": "NFTMinted",
      "type": "event"
    },
    {
      "anonymous": false,
      "inputs": [
        {
          "indexed": true,
          "internalType": "address",
          "name": "previousOwner",
          "type": "address"
        },
        {
          "indexed": true,
          "internalType": "address",
          "name": "newOwner",
          "type": "address"
        }
      ],
      "name": "OwnershipTransferred",
      "type": "event"
    },
    {
      "anonymous": false,
      "inputs": [
        {
          "indexed": true,
          "internalType": "address",
          "name": "from",
          "type": "address"
        },
        {
          "indexed": true,
          "internalType": "address",
          "name": "to",
          "type": "address"
        },
        {
          "indexed": true,
          "internalType": "uint256",
          "name": "tokenId",
          "type": "uint256"
        }
      ],
      "name": "Transfer",
      "type": "event"
    },
    {
      "inputs": [
        {
          "internalType": "address",
          "name": "to",
          "type": "address"
        },
        {
          "internalType": "uint256",
          "name": "tokenId",
          "type": "uint256"
        }
      ],
      "name": "approve",
      "outputs": [],
      "stateMutability": "nonpayable",
      "type": "function"
    },
    {
      "inputs": [
        {
          "internalType": "address",
          "name": "owner",
          "type": "address"
        }
      ],
      "name": "balanceOf",
      "outputs": [
        {
          "internalType": "uint256",
          "name": "",
          "type": "uint256"
        }
      ],
      "stateMutability": "view",
      "type": "function"
    },
    {
      "inputs": [
        {
          "internalType": "uint256",
          "name": "tokenId",
          "type": "uint256"
        }
      ],
      "name": "getApproved",
      "outputs": [
        {
          "internalType": "address",
          "name": "",
          "type": "address"
        }
      ],
      "stateMutability": "view",
      "type": "function"
    },
    {
      "inputs": [
        {
          "internalType": "uint256",
          "name": "tokenId",
          "type": "uint256"
        }
      ],
      "name": "getMinter",
      "outputs": [
        {
          "internalType": "address",
          "name": "",
          "type": "address"
        }
      ],
      "stateMutability": "view",
      "type": "function"
    },
    {
      "inputs": [
        {
          "internalType": "address",
          "name": "owner",
          "type": "address"
        }
      ],
      "name": "getTokensByOwner",
      "outputs": [
        {
          "internalType": "uint256[]",
          "name": "",
          "type": "uint256[]"
        }
      ],
      "stateMutability": "view",
      "type": "function"
    },
    {
      "inputs": [],
      "name": "getTotalSupply",
      "outputs": [
        {
          "internalType": "uint256",
          "name": "",
          "type": "uint256"
        }
      ],
      "stateMutability": "view",
      "type": "function"
    },
    {
      "inputs": [
        {
          "internalType": "address",
          "name": "owner",
          "type": "address"
        },
        {
          "internalType": "address",
          "name": "operator",
          "type": "address"
        }
      ],
      "name": "isApprovedForAll",
      "outputs": [
        {
          "internalType": "bool",
          "name": "",
          "type": "bool"
        }
      ],
      "stateMutability": "view",
      "type": "function"
    },
    {
      "inputs": [
        {
          "internalType": "address",
          "name": "recipient",
          "type": "address"
        },
        {
          "internalType": "string",
          "name": "tokenURI",
          "type": "string"
        }
      ],
      "name": "mintNFT",
      "outputs": [
        {
          "internalType": "uint256",
          "name": "",
          "type": "uint256"
        }
      ],
      "stateMutability": "nonpayable",
      "type": "function"
    },
    {
      "inputs": [],
      "name": "name",
      "outputs": [
        {
          "internalType": "string",
          "name": "",
          "type": "string"
        }
      ],
      "stateMutability": "view",
      "type": "function"
    },
    {
      "inputs": [],
      "name": "owner",
      "outputs": [
        {
          "internalType": "address",
          "name": "",
          "type": "address"
        }
      ],
      "stateMutability": "view",
      "type": "function"
    },
    {
      "inputs": [
        {
          "internalType": "uint256",
          "name": "tokenId",
          "type": "uint256"
        }
      ],
      "name": "ownerOf",
      "outputs": [
        {
          "internalType": "address",
          "name": "",
          "type": "address"
        }
      ],
      "stateMutability": "view",
      "type": "function"
    },
    {
      "inputs": [],
      "name": "renounceOwnership",
      "outputs": [],
      "stateMutability": "nonpayable",
      "type": "function"
    },
    {
      "inputs": [
        {
          "internalType": "address",
          "name": "from",
          "type": "address"
        },
        {
          "internalType": "address",
          "name": "to",
          "type": "address"
        },
        {
          "internalType": "uint256",
          "name": "tokenId",
          "type": "uint256"
        }
      ],
      "name": "safeTransferFrom",
      "outputs": [],
      "stateMutability": "nonpayable",
      "type": "function"
    },
    {
      "inputs": [
        {
          "internalType": "address",
          "name": "from",
          "type": "address"
        },
        {
          "internalType": "address",
          "name": "to",
          "type": "address"
        },
        {
          "internalType": "uint256",
          "name": "tokenId",
          "type": "uint256"
        },
        {
          "internalType": "bytes",
          "name": "data",
          "type": "bytes"
        }
      ],
      "name": "safeTransferFrom",
      "outputs": [],
      "stateMutability": "nonpayable",
      "type": "function"
    },
    {
      "inputs": [
        {
          "internalType": "address",
          "name": "operator",
          "type": "address"
        },
        {
          "internalType": "bool",
          "name": "approved",
          "type": "bool"
        }
      ],
      "name": "setApprovalForAll",
      "outputs": [],
      "stateMutability": "nonpayable",
      "type": "function"
    },
    {
      "inputs": [
        {
          "internalType": "bytes4",
          "name": "interfaceId",
          "type": "bytes4"
        }
      ],
      "name": "supportsInterface",
      "outputs": [
        {
          "internalType": "bool",
          "name": "",
          "type": "bool"
        }
      ],
      "stateMutability": "view",
      "type": "function"
    },
    {
      "inputs": [],
      "name": "symbol",
      "outputs": [
        {
          "internalType": "string",
          "name": "",
          "type": "string"
        }
      ],
      "stateMutability": "view",
      "type": "function"
    },
    {
      "inputs": [
        {
          "internalType": "uint256",
          "name": "",
          "type": "uint256"
        }
      ],
      "name": "tokenMinter",
      "outputs": [
        {
          "internalType": "address",
          "name": "",
          "type": "address"
        }
      ],
      "stateMutability": "view",
      "type": "function"
    },
    {
      "inputs": [
        {
          "internalType": "uint256",
          "name": "tokenId",
          "type": "uint256"
        }
      ],
      "name": "tokenURI",
      "outputs": [
        {
          "internalType": "string",
          "name": "",
          "type": "string"
        }
      ],
      "stateMutability": "view",
      "type": "function"
    },
    {
      "inputs": [
        {
          "internalType": "address",
          "name": "from",
          "type": "address"
        },
        {
          "internalType": "address",
          "name": "to",
          "type": "address"
        },
        {
          "internalType": "uint256",
          "name": "tokenId",
          "type": "uint256"
        }
      ],
      "name": "transferFrom",
      "outputs": [],
      "stateMutability": "nonpayable",
      "type": "function"
    },
    {
      "inputs": [
        {
          "internalType": "address",
          "name": "newOwner",
          "type": "address"
        }
      ],
      "name": "transferOwnership",
      "outputs": [],
      "stateMutability": "nonpayable",
      "type": "function"
    }
  ],
  "bytecode": "0x60806040523480156200001157600080fd5b50336040518060400160405280600981526020016814da5b5c1b1953919560ba1b8152506040518060400160405280600481526020016314d3919560e21b8152508160009081620000639190620001b2565b506001620000728282620001b2565b5050506001600160a01b038116620000a457604051631e4fbdf760e01b81526000600482015260240160405180910390fd5b620000af81620000bb565b5060006008556200027e565b600780546001600160a01b038381166001600160a01b0319831681179093556040519116919082907f8be0079c531659141344cd1fd0a4f28419497f9722a3daafe3b4186f6b6457e090600090a35050565b634e487b7160e01b600052604160045260246000fd5b600181811c908216806200013857607f821691505b6020821081036200015957634e487b7160e01b600052602260045260246000fd5b50919050565b601f821115620001ad57600081815260208120601f850160051c81016020861015620001885750805b601f850160051c820191505b81811015620001a95782815560010162000194565b5050505b505050565b81516001600160401b03811115620001ce57620001ce6200010d565b620001e681620001df845462000123565b846200015f565b602080601f8311600181146200021e5760008415620002055750858301515b600019600386901b1c1916600185901b178555620001a9565b600085815260208120601f198616915b828110156200024f578886015182559484019460019091019084016200022e565b50858210156200026e5787850151600019600388901b60f8161c191681555b5050505050600190811b01905550565b61169c806200028e6000396000f3fe608060405234801561001057600080fd5b50600436106101375760003560e01c8063715018a6116100b8578063b88d4fde1161007c578063b88d4fde146102a3578063c4e41b22146102b6578063c87b56dd146102be578063e985e9c5146102d1578063eacabe14146102e4578063f2fde38b146102f757600080fd5b8063715018a6146102465780637c57d9471461024e5780638da5cb5b1461027757806395d89b4114610288578063a22cb4651461029057600080fd5b806340398d67116100ff57806340398d67146101cc57806342842e0e146101ec5780635b7121f8146101ff5780636352211e1461021257806370a082311461022557600080fd5b806301ffc9a71461013c57806306fdde0314610164578063081812fc14610179578063095ea7b3146101a457806323b872dd146101b9575b600080fd5b61014f61014a3660046110eb565b61030a565b60405190151581526020015b60405180910390f35b61016c610335565b60405161015b9190611158565b61018c61018736600461116b565b6103c7565b6040516001600160a01b03909116815260200161015b565b6101b76101b23660046111a0565b6103f0565b005b6101b76101c73660046111ca565b6103ff565b6101df6101da366004611206565b61048f565b60405161015b9190611221565b6101b76101fa3660046111ca565b61055c565b61018c61020d36600461116b565b61057c565b61018c61022036600461116b565b6105f3565b610238610233366004611206565b6105fe565b60405190815260200161015b565b6101b7610646565b61018c61025c36600461116b565b6009602052600090815260409020546001600160a01b031681565b6007546001600160a01b031661018c565b61016c61065a565b6101b761029e366004611265565b610669565b6101b76102b136600461132d565b610674565b600854610238565b61016c6102cc36600461116b565b61068c565b61014f6102df3660046113a9565b61079d565b6102386102f23660046113dc565b6107cb565b6101b7610305366004611206565b61085d565b60006001600160e01b03198216632483248360e11b148061032f575061032f8261089b565b92915050565b6060600080546103449061143e565b80601f01602080910402602001604051908101604052809291908181526020018280546103709061143e565b80156103bd5780601f10610392576101008083540402835291602001916103bd565b820191906000526020600020905b8154815290600101906020018083116103a057829003601f168201915b5050505050905090565b60006103d2826108eb565b506000828152600460205260409020546001600160a01b031661032f565b6103fb828233610924565b5050565b6001600160a01b03821661042e57604051633250574960e11b8152600060048201526024015b60405180910390fd5b600061043b838333610931565b9050836001600160a01b0316816001600160a01b031614610489576040516364283d7b60e01b81526001600160a01b0380861660048301526024820184905282166044820152606401610425565b50505050565b6060600061049c836105fe565b905060008167ffffffffffffffff8111156104b9576104b96112a1565b6040519080825280602002602001820160405280156104e2578160200160208202803683370190505b509050600060015b6008548111610552576000818152600260205260409020546001600160a01b03878116911603610540578083838151811061052757610527611478565b60209081029190910101528161053c8161148e565b9250505b8061054a8161148e565b9150506104ea565b5090949350505050565b61057783838360405180602001604052806000815250610674565b505050565b6000818152600260205260408120546001600160a01b03166105d75760405162461bcd60e51b8152602060048201526014602482015273151bdad95b88191bd95cc81b9bdd08195e1a5cdd60621b6044820152606401610425565b506000908152600960205260409020546001600160a01b031690565b600061032f826108eb565b60006001600160a01b03821661062a576040516322718ad960e21b815260006004820152602401610425565b506001600160a01b031660009081526003602052604090205490565b61064e610a2a565b6106586000610a57565b565b6060600180546103449061143e565b6103fb338383610aa9565b61067f8484846103ff565b6104893385858585610b48565b6060610697826108eb565b50600082815260066020526040812080546106b19061143e565b80601f01602080910402602001604051908101604052809291908181526020018280546106dd9061143e565b801561072a5780601f106106ff5761010080835404028352916020019161072a565b820191906000526020600020905b81548152906001019060200180831161070d57829003601f168201915b50505050509050600061074860408051602081019091526000815290565b9050805160000361075a575092915050565b81511561078c5780826040516020016107749291906114b5565b60405160208183030381529060405292505050919050565b61079584610c73565b949350505050565b6001600160a01b03918216600090815260056020908152604080832093909416825291909152205460ff1690565b60088054600091826107dc8361148e565b90915550506008546107ee8482610ce8565b6107f88184610d4d565b6000818152600960205260409081902080546001600160a01b03191633908117909155905182907f23eae53a2b33c20fc1b74912840a6a2a72adc26effa68729f81e756c875df2899061084e90879042906114e4565b60405180910390a39392505050565b610865610a2a565b6001600160a01b03811661088f57604051631e4fbdf760e01b815260006004820152602401610425565b61089881610a57565b50565b60006001600160e01b031982166380ac58cd60e01b14806108cc57506001600160e01b03198216635b5e139f60e01b145b8061032f57506301ffc9a760e01b6001600160e01b031983161461032f565b6000818152600260205260408120546001600160a01b03168061032f57604051637e27328960e01b815260048101849052602401610425565b6105778383836001610d9d565b6000828152600260205260408120546001600160a01b039081169083161561095e5761095e818486610ea3565b6001600160a01b0381161561099c5761097b600085600080610d9d565b6001600160a01b038116600090815260036020526040902080546000190190555b6001600160a01b038516156109cb576001600160a01b0385166000908152600360205260409020805460010190555b60008481526002602052604080822080546001600160a01b0319166001600160a01b0389811691821790925591518793918516917fddf252ad1be2c89b69c2b068fc378daa952ba7f163c4a11628f55a4df523b3ef91a4949350505050565b6007546001600160a01b031633146106585760405163118cdaa760e01b8152336004820152602401610425565b600780546001600160a01b038381166001600160a01b0319831681179093556040519116919082907f8be0079c531659141344cd1fd0a4f28419497f9722a3daafe3b4186f6b6457e090600090a35050565b6001600160a01b038216610adb57604051630b61174360e31b81526001600160a01b0383166004820152602401610425565b6001600160a01b03838116600081815260056020908152604080832094871680845294825291829020805460ff191686151590811790915591519182527f17307eab39ab6107e8899845ad3d59bd9653f200f220920489ca2b5937696c31910160405180910390a3505050565b6001600160a01b0383163b15610c6c57604051630a85bd0160e11b81526001600160a01b0384169063150b7a0290610b8a908890889087908790600401611506565b6020604051808303816000875af1925050508015610bc5575060408051601f3d908101601f19168201909252610bc291810190611543565b60015b610c2e573d808015610bf3576040519150601f19603f3d011682016040523d82523d6000602084013e610bf8565b606091505b508051600003610c2657604051633250574960e11b81526001600160a01b0385166004820152602401610425565b805160208201fd5b6001600160e01b03198116630a85bd0160e11b14610c6a57604051633250574960e11b81526001600160a01b0385166004820152602401610425565b505b5050505050565b6060610c7e826108eb565b506000610c9660408051602081019091526000815290565b90506000815111610cb65760405180602001604052806000815250610ce1565b80610cc084610f07565b604051602001610cd19291906114b5565b6040516020818303038152906040525b9392505050565b6001600160a01b038216610d1257604051633250574960e11b815260006004820152602401610425565b6000610d2083836000610931565b90506001600160a01b03811615610577576040516339e3563760e11b815260006004820152602401610425565b6000828152600660205260409020610d6582826115a6565b506040518281527ff8e1a15aba9398e019f0b49df1a4fde98ee17ae345cb5f6b5e2c27f5033e8ce79060200160405180910390a15050565b8080610db157506001600160a01b03821615155b15610e73576000610dc1846108eb565b90506001600160a01b03831615801590610ded5750826001600160a01b0316816001600160a01b031614155b8015610e005750610dfe818461079d565b155b15610e295760405163a9fbf51f60e01b81526001600160a01b0384166004820152602401610425565b8115610e715783856001600160a01b0316826001600160a01b03167f8c5be1e5ebec7d5bd14f71427d1e84f3dd0314c0f7b2291e5b200ac8c7c3b92560405160405180910390a45b505b5050600090815260046020526040902080546001600160a01b0319166001600160a01b0392909216919091179055565b610eae838383610f9a565b610577576001600160a01b038316610edc57604051637e27328960e01b815260048101829052602401610425565b60405163177e802f60e01b81526001600160a01b038316600482015260248101829052604401610425565b60606000610f1483610ffd565b600101905060008167ffffffffffffffff811115610f3457610f346112a1565b6040519080825280601f01601f191660200182016040528015610f5e576020820181803683370190505b5090508181016020015b600019016f181899199a1a9b1b9c1cb0b131b232b360811b600a86061a8153600a8504945084610f6857509392505050565b60006001600160a01b038316158015906107955750826001600160a01b0316846001600160a01b03161480610fd45750610fd4848461079d565b806107955750506000908152600460205260409020546001600160a01b03908116911614919050565b60008072184f03e93ff9f4daa797ed6e38ed64bf6a1f0160401b831061103c5772184f03e93ff9f4daa797ed6e38ed64bf6a1f0160401b830492506040015b6d04ee2d6d415b85acef81000000008310611068576d04ee2d6d415b85acef8100000000830492506020015b662386f26fc10000831061108657662386f26fc10000830492506010015b6305f5e100831061109e576305f5e100830492506008015b61271083106110b257612710830492506004015b606483106110c4576064830492506002015b600a831061032f5760010192915050565b6001600160e01b03198116811461089857600080fd5b6000602082840312156110fd57600080fd5b8135610ce1816110d5565b60005b8381101561112357818101518382015260200161110b565b50506000910152565b60008151808452611144816020860160208601611108565b601f01601f19169290920160200192915050565b602081526000610ce1602083018461112c565b60006020828403121561117d57600080fd5b5035919050565b80356001600160a01b038116811461119b57600080fd5b919050565b600080604083850312156111b357600080fd5b6111bc83611184565b946020939093013593505050565b6000806000606084860312156111df57600080fd5b6111e884611184565b92506111f660208501611184565b9150604084013590509250925092565b60006020828403121561121857600080fd5b610ce182611184565b6020808252825182820181905260009190848201906040850190845b818110156112595783518352928401929184019160010161123d565b50909695505050505050565b6000806040838503121561127857600080fd5b61128183611184565b91506020830135801515811461129657600080fd5b809150509250929050565b634e487b7160e01b600052604160045260246000fd5b600067ffffffffffffffff808411156112d2576112d26112a1565b604051601f8501601f19908116603f011681019082821181831017156112fa576112fa6112a1565b8160405280935085815286868601111561131357600080fd5b858560208301376000602087830101525050509392505050565b6000806000806080858703121561134357600080fd5b61134c85611184565b935061135a60208601611184565b925060408501359150606085013567ffffffffffffffff81111561137d57600080fd5b8501601f8101871361138e57600080fd5b61139d878235602084016112b7565b91505092959194509250565b600080604083850312156113bc57600080fd5b6113c583611184565b91506113d360208401611184565b90509250929050565b600080604083850312156113ef57600080fd5b6113f883611184565b9150602083013567ffffffffffffffff81111561141457600080fd5b8301601f8101851361142557600080fd5b611434858235602084016112b7565b9150509250929050565b600181811c9082168061145257607f821691505b60208210810361147257634e487b7160e01b600052602260045260246000fd5b50919050565b634e487b7160e01b600052603260045260246000fd5b6000600182016114ae57634e487b7160e01b600052601160045260246000fd5b5060010190565b600083516114c7818460208801611108565b8351908301906114db818360208801611108565b01949350505050565b6040815260006114f7604083018561112c565b90508260208301529392505050565b6001600160a01b03858116825284166020820152604081018390526080606082018190526000906115399083018461112c565b9695505050505050565b60006020828403121561155557600080fd5b8151610ce1816110d5565b601f82111561057757600081815260208120601f850160051c810160208610156115875750805b601f850160051c820191505b81811015610c6a57828155600101611593565b815167ffffffffffffffff8111156115c0576115c06112a1565b6115d4816115ce845461143e565b84611560565b602080601f83116001811461160957600084156115f15750858301515b600019600386901b1c1916600185901b178555610c6a565b600085815260208120601f198616915b8281101561163857888601518255948401946001909101908401611619565b50858210156116565787850151600019600388901b60f8161c191681555b5050505050600190811b0190555056fea26469706673582212200a542c45085051f58905a26a8ca26891fcdc16eb13178b6087062b72c38c748c64736f6c63430008140033",
  "linkReferences": {},
  "deployedLinkReferences": {}
}